{
  "_format": "hh-sol-artifact-1",
  "contractName": "Assessment",
  "sourceName": "contracts/Assessment.sol",
  "abi": [
    {
      "inputs": [
        {
          "internalType": "uint256",
          "name": "initBalance",
          "type": "uint256"
        }
      ],
      "stateMutability": "payable",
      "type": "constructor"
    },
    {
      "inputs": [
        {
          "internalType": "uint256",
          "name": "balance",
          "type": "uint256"
        },
        {
          "internalType": "uint256",
          "name": "withdrawAmount",
          "type": "uint256"
        }
      ],
      "name": "InsufficientBalance",
      "type": "error"
    },
    {
      "anonymous": false,
      "inputs": [
        {
          "indexed": false,
          "internalType": "address",
          "name": "buyer",
          "type": "address"
        }
      ],
      "name": "BuyDonut",
      "type": "event"
    },
    {
      "anonymous": false,
      "inputs": [
        {
          "indexed": false,
          "internalType": "uint256",
          "name": "amount",
          "type": "uint256"
        }
      ],
      "name": "Deposit",
      "type": "event"
    },
    {
      "anonymous": false,
      "inputs": [
        {
          "indexed": false,
          "internalType": "uint256",
          "name": "amount",
          "type": "uint256"
        }
      ],
      "name": "Withdraw",
      "type": "event"
    },
    {
      "inputs": [],
      "name": "balance",
      "outputs": [
        {
          "internalType": "uint256",
          "name": "",
          "type": "uint256"
        }
      ],
      "stateMutability": "view",
      "type": "function"
    },
    {
      "inputs": [],
      "name": "buyDonuts",
      "outputs": [],
      "stateMutability": "payable",
      "type": "function"
    },
    {
      "inputs": [
        {
          "internalType": "uint256",
          "name": "_amount",
          "type": "uint256"
        }
      ],
      "name": "deposit",
      "outputs": [],
      "stateMutability": "payable",
      "type": "function"
    },
    {
      "inputs": [],
      "name": "donutBalance",
      "outputs": [
        {
          "internalType": "uint256",
          "name": "",
          "type": "uint256"
        }
      ],
      "stateMutability": "view",
      "type": "function"
    },
    {
      "inputs": [],
      "name": "getBalance",
      "outputs": [
        {
          "internalType": "uint256",
          "name": "",
          "type": "uint256"
        }
      ],
      "stateMutability": "view",
      "type": "function"
    },
    {
      "inputs": [],
      "name": "getDonutBalance",
      "outputs": [
        {
          "internalType": "uint256",
          "name": "",
          "type": "uint256"
        }
      ],
      "stateMutability": "view",
      "type": "function"
    },
    {
      "inputs": [],
      "name": "owner",
      "outputs": [
        {
          "internalType": "address payable",
          "name": "",
          "type": "address"
        }
      ],
      "stateMutability": "view",
      "type": "function"
    },
    {
      "inputs": [
        {
          "internalType": "uint256",
          "name": "_withdrawAmount",
          "type": "uint256"
        }
      ],
      "name": "withdraw",
      "outputs": [],
      "stateMutability": "payable",
      "type": "function"
    }
  ],
  "bytecode": "0x6080604052604051610963380380610963833981810160405281019061002591906100b5565b336000806101000a81548173ffffffffffffffffffffffffffffffffffffffff021916908373ffffffffffffffffffffffffffffffffffffffff160217905550806001819055506000600281905550506100e2565b600080fd5b6000819050919050565b6100928161007f565b811461009d57600080fd5b50565b6000815190506100af81610089565b92915050565b6000602082840312156100cb576100ca61007a565b5b60006100d9848285016100a0565b91505092915050565b610872806100f16000396000f3fe60806040526004361061007b5760003560e01c80638da5cb5b1161004e5780638da5cb5b1461011d5780639469983514610148578063b69ef8a814610152578063b6b55f251461017d5761007b565b806312065fe0146100805780632e1a7d4d146100ab5780633639ef24146100c75780636c92c921146100f2575b600080fd5b34801561008c57600080fd5b50610095610199565b6040516100a2919061052b565b60405180910390f35b6100c560048036038101906100c09190610577565b6101a3565b005b3480156100d357600080fd5b506100dc6102f4565b6040516100e9919061052b565b60405180910390f35b3480156100fe57600080fd5b506101076102fa565b604051610114919061052b565b60405180910390f35b34801561012957600080fd5b50610132610304565b60405161013f91906105e5565b60405180910390f35b610150610328565b005b34801561015e57600080fd5b50610167610406565b604051610174919061052b565b60405180910390f35b61019760048036038101906101929190610577565b61040c565b005b6000600154905090565b60008054906101000a900473ffffffffffffffffffffffffffffffffffffffff1673ffffffffffffffffffffffffffffffffffffffff163373ffffffffffffffffffffffffffffffffffffffff1614610231576040517f08c379a000000000000000000000000000000000000000000000000000000000815260040161022890610683565b60405180910390fd5b6000600154905081600154101561028357600154826040517fcf47918100000000000000000000000000000000000000000000000000000000815260040161027a9291906106a3565b60405180910390fd5b816001600082825461029591906106fb565b9250508190555081816102a891906106fb565b600154146102b9576102b861072f565b5b7f5b6b431d4476a211bb7d41c20d1aab9ae2321deee0d20be3d9fc9b1093fa6e3d826040516102e8919061052b565b60405180910390a15050565b60025481565b6000600254905090565b60008054906101000a900473ffffffffffffffffffffffffffffffffffffffff1681565b6000600154905060018054101561037b5760015460016040517fcf4791810000000000000000000000000000000000000000000000000000000081526004016103729291906107a3565b60405180910390fd5b600180600082825461038d91906106fb565b925050819055506001600260008282546103a791906107cc565b925050819055506001816103bb91906106fb565b600154146103cc576103cb61072f565b5b7ff6e4256ad60f6048f9ba8df319328e4d4a6d942893a2b9f67290b127cc69d61e336040516103fb9190610821565b60405180910390a150565b60015481565b6000600154905060008054906101000a900473ffffffffffffffffffffffffffffffffffffffff1673ffffffffffffffffffffffffffffffffffffffff163373ffffffffffffffffffffffffffffffffffffffff16146104a1576040517f08c379a000000000000000000000000000000000000000000000000000000000815260040161049890610683565b60405180910390fd5b81600160008282546104b391906107cc565b9250508190555081816104c691906107cc565b600154146104d7576104d661072f565b5b7f4d6ce1e535dbade1c23defba91e23b8f791ce5edc0cc320257a2b364e4e3842682604051610506919061052b565b60405180910390a15050565b6000819050919050565b61052581610512565b82525050565b6000602082019050610540600083018461051c565b92915050565b600080fd5b61055481610512565b811461055f57600080fd5b50565b6000813590506105718161054b565b92915050565b60006020828403121561058d5761058c610546565b5b600061059b84828501610562565b91505092915050565b600073ffffffffffffffffffffffffffffffffffffffff82169050919050565b60006105cf826105a4565b9050919050565b6105df816105c4565b82525050565b60006020820190506105fa60008301846105d6565b92915050565b600082825260208201905092915050565b7f596f7520617265206e6f7420746865206f776e6572206f66207468697320616360008201527f636f756e74000000000000000000000000000000000000000000000000000000602082015250565b600061066d602583610600565b915061067882610611565b604082019050919050565b6000602082019050818103600083015261069c81610660565b9050919050565b60006040820190506106b8600083018561051c565b6106c5602083018461051c565b9392505050565b7f4e487b7100000000000000000000000000000000000000000000000000000000600052601160045260246000fd5b600061070682610512565b915061071183610512565b9250828203905081811115610729576107286106cc565b5b92915050565b7f4e487b7100000000000000000000000000000000000000000000000000000000600052600160045260246000fd5b6000819050919050565b6000819050919050565b600061078d6107886107838461075e565b610768565b610512565b9050919050565b61079d81610772565b82525050565b60006040820190506107b8600083018561051c565b6107c56020830184610794565b9392505050565b60006107d782610512565b91506107e283610512565b92508282019050808211156107fa576107f96106cc565b5b92915050565b600061080b826105a4565b9050919050565b61081b81610800565b82525050565b60006020820190506108366000830184610812565b9291505056fea26469706673582212201e49941f66e52a1de79d3eec279c96dd9e7dd333a3ff8f22ee9ddaea40e6ef0464736f6c63430008110033",
  "linkReferences": {},
  "deployedLinkReferences": {}
}