{"contracts/Assessment.sol":{"Assessment":{"abi":[{"inputs":[{"internalType":"uint256","name":"initBalance","type":"uint256"}],"stateMutability":"payable","type":"constructor"},{"inputs":[{"internalType":"uint256","name":"balance","type":"uint256"},{"internalType":"uint256","name":"withdrawAmount","type":"uint256"}],"name":"InsufficientBalance","type":"error"},{"anonymous":false,"inputs":[{"indexed":false,"internalType":"address","name":"buyer","type":"address"}],"name":"BuyDonut","type":"event"},{"anonymous":false,"inputs":[{"indexed":false,"internalType":"uint256","name":"amount","type":"uint256"}],"name":"Deposit","type":"event"},{"anonymous":false,"inputs":[{"indexed":false,"internalType":"uint256","name":"amount","type":"uint256"}],"name":"Withdraw","type":"event"},{"inputs":[],"name":"balance","outputs":[{"internalType":"uint256","name":"","type":"uint256"}],"stateMutability":"view","type":"function"},{"inputs":[],"name":"buyDonuts","outputs":[],"stateMutability":"payable","type":"function"},{"inputs":[{"internalType":"uint256","name":"_amount","type":"uint256"}],"name":"deposit","outputs":[],"stateMutability":"payable","type":"function"},{"inputs":[],"name":"donutBalance","outputs":[{"internalType":"uint256","name":"","type":"uint256"}],"stateMutability":"view","type":"function"},{"inputs":[],"name":"getBalance","outputs":[{"internalType":"uint256","name":"","type":"uint256"}],"stateMutability":"view","type":"function"},{"inputs":[],"name":"getDonutBalance","outputs":[{"internalType":"uint256","name":"","type":"uint256"}],"stateMutability":"view","type":"function"},{"inputs":[],"name":"owner","outputs":[{"internalType":"address payable","name":"","type":"address"}],"stateMutability":"view","type":"function"},{"inputs":[{"internalType":"uint256","name":"_withdrawAmount","type":"uint256"}],"name":"withdraw","outputs":[],"stateMutability":"payable","type":"function"}],"evm":{"bytecode":{"linkReferences":{},"object":"6080604052604051610963380380610963833981810160405281019061002591906100b5565b336000806101000a81548173ffffffffffffffffffffffffffffffffffffffff021916908373ffffffffffffffffffffffffffffffffffffffff160217905550806001819055506000600281905550506100e2565b600080fd5b6000819050919050565b6100928161007f565b811461009d57600080fd5b50565b6000815190506100af81610089565b92915050565b6000602082840312156100cb576100ca61007a565b5b60006100d9848285016100a0565b91505092915050565b610872806100f16000396000f3fe60806040526004361061007b5760003560e01c80638da5cb5b1161004e5780638da5cb5b1461011d5780639469983514610148578063b69ef8a814610152578063b6b55f251461017d5761007b565b806312065fe0146100805780632e1a7d4d146100ab5780633639ef24146100c75780636c92c921146100f2575b600080fd5b34801561008c57600080fd5b50610095610199565b6040516100a2919061052b565b60405180910390f35b6100c560048036038101906100c09190610577565b6101a3565b005b3480156100d357600080fd5b506100dc6102f4565b6040516100e9919061052b565b60405180910390f35b3480156100fe57600080fd5b506101076102fa565b604051610114919061052b565b60405180910390f35b34801561012957600080fd5b50610132610304565b60405161013f91906105e5565b60405180910390f35b610150610328565b005b34801561015e57600080fd5b50610167610406565b604051610174919061052b565b60405180910390f35b61019760048036038101906101929190610577565b61040c565b005b6000600154905090565b60008054906101000a900473ffffffffffffffffffffffffffffffffffffffff1673ffffffffffffffffffffffffffffffffffffffff163373ffffffffffffffffffffffffffffffffffffffff1614610231576040517f08c379a000000000000000000000000000000000000000000000000000000000815260040161022890610683565b60405180910390fd5b6000600154905081600154101561028357600154826040517fcf47918100000000000000000000000000000000000000000000000000000000815260040161027a9291906106a3565b60405180910390fd5b816001600082825461029591906106fb565b9250508190555081816102a891906106fb565b600154146102b9576102b861072f565b5b7f5b6b431d4476a211bb7d41c20d1aab9ae2321deee0d20be3d9fc9b1093fa6e3d826040516102e8919061052b565b60405180910390a15050565b60025481565b6000600254905090565b60008054906101000a900473ffffffffffffffffffffffffffffffffffffffff1681565b6000600154905060018054101561037b5760015460016040517fcf4791810000000000000000000000000000000000000000000000000000000081526004016103729291906107a3565b60405180910390fd5b600180600082825461038d91906106fb565b925050819055506001600260008282546103a791906107cc565b925050819055506001816103bb91906106fb565b600154146103cc576103cb61072f565b5b7ff6e4256ad60f6048f9ba8df319328e4d4a6d942893a2b9f67290b127cc69d61e336040516103fb9190610821565b60405180910390a150565b60015481565b6000600154905060008054906101000a900473ffffffffffffffffffffffffffffffffffffffff1673ffffffffffffffffffffffffffffffffffffffff163373ffffffffffffffffffffffffffffffffffffffff16146104a1576040517f08c379a000000000000000000000000000000000000000000000000000000000815260040161049890610683565b60405180910390fd5b81600160008282546104b391906107cc565b9250508190555081816104c691906107cc565b600154146104d7576104d661072f565b5b7f4d6ce1e535dbade1c23defba91e23b8f791ce5edc0cc320257a2b364e4e3842682604051610506919061052b565b60405180910390a15050565b6000819050919050565b61052581610512565b82525050565b6000602082019050610540600083018461051c565b92915050565b600080fd5b61055481610512565b811461055f57600080fd5b50565b6000813590506105718161054b565b92915050565b60006020828403121561058d5761058c610546565b5b600061059b84828501610562565b91505092915050565b600073ffffffffffffffffffffffffffffffffffffffff82169050919050565b60006105cf826105a4565b9050919050565b6105df816105c4565b82525050565b60006020820190506105fa60008301846105d6565b92915050565b600082825260208201905092915050565b7f596f7520617265206e6f7420746865206f776e6572206f66207468697320616360008201527f636f756e74000000000000000000000000000000000000000000000000000000602082015250565b600061066d602583610600565b915061067882610611565b604082019050919050565b6000602082019050818103600083015261069c81610660565b9050919050565b60006040820190506106b8600083018561051c565b6106c5602083018461051c565b9392505050565b7f4e487b7100000000000000000000000000000000000000000000000000000000600052601160045260246000fd5b600061070682610512565b915061071183610512565b9250828203905081811115610729576107286106cc565b5b92915050565b7f4e487b7100000000000000000000000000000000000000000000000000000000600052600160045260246000fd5b6000819050919050565b6000819050919050565b600061078d6107886107838461075e565b610768565b610512565b9050919050565b61079d81610772565b82525050565b60006040820190506107b8600083018561051c565b6107c56020830184610794565b9392505050565b60006107d782610512565b91506107e283610512565b92508282019050808211156107fa576107f96106cc565b5b92915050565b600061080b826105a4565b9050919050565b61081b81610800565b82525050565b60006020820190506108366000830184610812565b9291505056fea26469706673582212201e49941f66e52a1de79d3eec279c96dd9e7dd333a3ff8f22ee9ddaea40e6ef0464736f6c63430008110033","opcodes":"PUSH1 0x80 PUSH1 0x40 MSTORE PUSH1 0x40 MLOAD PUSH2 0x963 CODESIZE SUB DUP1 PUSH2 0x963 DUP4 CODECOPY DUP2 DUP2 ADD PUSH1 0x40 MSTORE DUP2 ADD SWAP1 PUSH2 0x25 SWAP2 SWAP1 PUSH2 0xB5 JUMP JUMPDEST CALLER PUSH1 0x0 DUP1 PUSH2 0x100 EXP DUP2 SLOAD DUP2 PUSH20 0xFFFFFFFFFFFFFFFFFFFFFFFFFFFFFFFFFFFFFFFF MUL NOT AND SWAP1 DUP4 PUSH20 0xFFFFFFFFFFFFFFFFFFFFFFFFFFFFFFFFFFFFFFFF AND MUL OR SWAP1 SSTORE POP DUP1 PUSH1 0x1 DUP2 SWAP1 SSTORE POP PUSH1 0x0 PUSH1 0x2 DUP2 SWAP1 SSTORE POP POP PUSH2 0xE2 JUMP JUMPDEST PUSH1 0x0 DUP1 REVERT JUMPDEST PUSH1 0x0 DUP2 SWAP1 POP SWAP2 SWAP1 POP JUMP JUMPDEST PUSH2 0x92 DUP2 PUSH2 0x7F JUMP JUMPDEST DUP2 EQ PUSH2 0x9D JUMPI PUSH1 0x0 DUP1 REVERT JUMPDEST POP JUMP JUMPDEST PUSH1 0x0 DUP2 MLOAD SWAP1 POP PUSH2 0xAF DUP2 PUSH2 0x89 JUMP JUMPDEST SWAP3 SWAP2 POP POP JUMP JUMPDEST PUSH1 0x0 PUSH1 0x20 DUP3 DUP5 SUB SLT ISZERO PUSH2 0xCB JUMPI PUSH2 0xCA PUSH2 0x7A JUMP JUMPDEST JUMPDEST PUSH1 0x0 PUSH2 0xD9 DUP5 DUP3 DUP6 ADD PUSH2 0xA0 JUMP JUMPDEST SWAP2 POP POP SWAP3 SWAP2 POP POP JUMP JUMPDEST PUSH2 0x872 DUP1 PUSH2 0xF1 PUSH1 0x0 CODECOPY PUSH1 0x0 RETURN INVALID PUSH1 0x80 PUSH1 0x40 MSTORE PUSH1 0x4 CALLDATASIZE LT PUSH2 0x7B JUMPI PUSH1 0x0 CALLDATALOAD PUSH1 0xE0 SHR DUP1 PUSH4 0x8DA5CB5B GT PUSH2 0x4E JUMPI DUP1 PUSH4 0x8DA5CB5B EQ PUSH2 0x11D JUMPI DUP1 PUSH4 0x94699835 EQ PUSH2 0x148 JUMPI DUP1 PUSH4 0xB69EF8A8 EQ PUSH2 0x152 JUMPI DUP1 PUSH4 0xB6B55F25 EQ PUSH2 0x17D JUMPI PUSH2 0x7B JUMP JUMPDEST DUP1 PUSH4 0x12065FE0 EQ PUSH2 0x80 JUMPI DUP1 PUSH4 0x2E1A7D4D EQ PUSH2 0xAB JUMPI DUP1 PUSH4 0x3639EF24 EQ PUSH2 0xC7 JUMPI DUP1 PUSH4 0x6C92C921 EQ PUSH2 0xF2 JUMPI JUMPDEST PUSH1 0x0 DUP1 REVERT JUMPDEST CALLVALUE DUP1 ISZERO PUSH2 0x8C JUMPI PUSH1 0x0 DUP1 REVERT JUMPDEST POP PUSH2 0x95 PUSH2 0x199 JUMP JUMPDEST PUSH1 0x40 MLOAD PUSH2 0xA2 SWAP2 SWAP1 PUSH2 0x52B JUMP JUMPDEST PUSH1 0x40 MLOAD DUP1 SWAP2 SUB SWAP1 RETURN JUMPDEST PUSH2 0xC5 PUSH1 0x4 DUP1 CALLDATASIZE SUB DUP2 ADD SWAP1 PUSH2 0xC0 SWAP2 SWAP1 PUSH2 0x577 JUMP JUMPDEST PUSH2 0x1A3 JUMP JUMPDEST STOP JUMPDEST CALLVALUE DUP1 ISZERO PUSH2 0xD3 JUMPI PUSH1 0x0 DUP1 REVERT JUMPDEST POP PUSH2 0xDC PUSH2 0x2F4 JUMP JUMPDEST PUSH1 0x40 MLOAD PUSH2 0xE9 SWAP2 SWAP1 PUSH2 0x52B JUMP JUMPDEST PUSH1 0x40 MLOAD DUP1 SWAP2 SUB SWAP1 RETURN JUMPDEST CALLVALUE DUP1 ISZERO PUSH2 0xFE JUMPI PUSH1 0x0 DUP1 REVERT JUMPDEST POP PUSH2 0x107 PUSH2 0x2FA JUMP JUMPDEST PUSH1 0x40 MLOAD PUSH2 0x114 SWAP2 SWAP1 PUSH2 0x52B JUMP JUMPDEST PUSH1 0x40 MLOAD DUP1 SWAP2 SUB SWAP1 RETURN JUMPDEST CALLVALUE DUP1 ISZERO PUSH2 0x129 JUMPI PUSH1 0x0 DUP1 REVERT JUMPDEST POP PUSH2 0x132 PUSH2 0x304 JUMP JUMPDEST PUSH1 0x40 MLOAD PUSH2 0x13F SWAP2 SWAP1 PUSH2 0x5E5 JUMP JUMPDEST PUSH1 0x40 MLOAD DUP1 SWAP2 SUB SWAP1 RETURN JUMPDEST PUSH2 0x150 PUSH2 0x328 JUMP JUMPDEST STOP JUMPDEST CALLVALUE DUP1 ISZERO PUSH2 0x15E JUMPI PUSH1 0x0 DUP1 REVERT JUMPDEST POP PUSH2 0x167 PUSH2 0x406 JUMP JUMPDEST PUSH1 0x40 MLOAD PUSH2 0x174 SWAP2 SWAP1 PUSH2 0x52B JUMP JUMPDEST PUSH1 0x40 MLOAD DUP1 SWAP2 SUB SWAP1 RETURN JUMPDEST PUSH2 0x197 PUSH1 0x4 DUP1 CALLDATASIZE SUB DUP2 ADD SWAP1 PUSH2 0x192 SWAP2 SWAP1 PUSH2 0x577 JUMP JUMPDEST PUSH2 0x40C JUMP JUMPDEST STOP JUMPDEST PUSH1 0x0 PUSH1 0x1 SLOAD SWAP1 POP SWAP1 JUMP JUMPDEST PUSH1 0x0 DUP1 SLOAD SWAP1 PUSH2 0x100 EXP SWAP1 DIV PUSH20 0xFFFFFFFFFFFFFFFFFFFFFFFFFFFFFFFFFFFFFFFF AND PUSH20 0xFFFFFFFFFFFFFFFFFFFFFFFFFFFFFFFFFFFFFFFF AND CALLER PUSH20 0xFFFFFFFFFFFFFFFFFFFFFFFFFFFFFFFFFFFFFFFF AND EQ PUSH2 0x231 JUMPI PUSH1 0x40 MLOAD PUSH32 0x8C379A000000000000000000000000000000000000000000000000000000000 DUP2 MSTORE PUSH1 0x4 ADD PUSH2 0x228 SWAP1 PUSH2 0x683 JUMP JUMPDEST PUSH1 0x40 MLOAD DUP1 SWAP2 SUB SWAP1 REVERT JUMPDEST PUSH1 0x0 PUSH1 0x1 SLOAD SWAP1 POP DUP2 PUSH1 0x1 SLOAD LT ISZERO PUSH2 0x283 JUMPI PUSH1 0x1 SLOAD DUP3 PUSH1 0x40 MLOAD PUSH32 0xCF47918100000000000000000000000000000000000000000000000000000000 DUP2 MSTORE PUSH1 0x4 ADD PUSH2 0x27A SWAP3 SWAP2 SWAP1 PUSH2 0x6A3 JUMP JUMPDEST PUSH1 0x40 MLOAD DUP1 SWAP2 SUB SWAP1 REVERT JUMPDEST DUP2 PUSH1 0x1 PUSH1 0x0 DUP3 DUP3 SLOAD PUSH2 0x295 SWAP2 SWAP1 PUSH2 0x6FB JUMP JUMPDEST SWAP3 POP POP DUP2 SWAP1 SSTORE POP DUP2 DUP2 PUSH2 0x2A8 SWAP2 SWAP1 PUSH2 0x6FB JUMP JUMPDEST PUSH1 0x1 SLOAD EQ PUSH2 0x2B9 JUMPI PUSH2 0x2B8 PUSH2 0x72F JUMP JUMPDEST JUMPDEST PUSH32 0x5B6B431D4476A211BB7D41C20D1AAB9AE2321DEEE0D20BE3D9FC9B1093FA6E3D DUP3 PUSH1 0x40 MLOAD PUSH2 0x2E8 SWAP2 SWAP1 PUSH2 0x52B JUMP JUMPDEST PUSH1 0x40 MLOAD DUP1 SWAP2 SUB SWAP1 LOG1 POP POP JUMP JUMPDEST PUSH1 0x2 SLOAD DUP2 JUMP JUMPDEST PUSH1 0x0 PUSH1 0x2 SLOAD SWAP1 POP SWAP1 JUMP JUMPDEST PUSH1 0x0 DUP1 SLOAD SWAP1 PUSH2 0x100 EXP SWAP1 DIV PUSH20 0xFFFFFFFFFFFFFFFFFFFFFFFFFFFFFFFFFFFFFFFF AND DUP2 JUMP JUMPDEST PUSH1 0x0 PUSH1 0x1 SLOAD SWAP1 POP PUSH1 0x1 DUP1 SLOAD LT ISZERO PUSH2 0x37B JUMPI PUSH1 0x1 SLOAD PUSH1 0x1 PUSH1 0x40 MLOAD PUSH32 0xCF47918100000000000000000000000000000000000000000000000000000000 DUP2 MSTORE PUSH1 0x4 ADD PUSH2 0x372 SWAP3 SWAP2 SWAP1 PUSH2 0x7A3 JUMP JUMPDEST PUSH1 0x40 MLOAD DUP1 SWAP2 SUB SWAP1 REVERT JUMPDEST PUSH1 0x1 DUP1 PUSH1 0x0 DUP3 DUP3 SLOAD PUSH2 0x38D SWAP2 SWAP1 PUSH2 0x6FB JUMP JUMPDEST SWAP3 POP POP DUP2 SWAP1 SSTORE POP PUSH1 0x1 PUSH1 0x2 PUSH1 0x0 DUP3 DUP3 SLOAD PUSH2 0x3A7 SWAP2 SWAP1 PUSH2 0x7CC JUMP JUMPDEST SWAP3 POP POP DUP2 SWAP1 SSTORE POP PUSH1 0x1 DUP2 PUSH2 0x3BB SWAP2 SWAP1 PUSH2 0x6FB JUMP JUMPDEST PUSH1 0x1 SLOAD EQ PUSH2 0x3CC JUMPI PUSH2 0x3CB PUSH2 0x72F JUMP JUMPDEST JUMPDEST PUSH32 0xF6E4256AD60F6048F9BA8DF319328E4D4A6D942893A2B9F67290B127CC69D61E CALLER PUSH1 0x40 MLOAD PUSH2 0x3FB SWAP2 SWAP1 PUSH2 0x821 JUMP JUMPDEST PUSH1 0x40 MLOAD DUP1 SWAP2 SUB SWAP1 LOG1 POP JUMP JUMPDEST PUSH1 0x1 SLOAD DUP2 JUMP JUMPDEST PUSH1 0x0 PUSH1 0x1 SLOAD SWAP1 POP PUSH1 0x0 DUP1 SLOAD SWAP1 PUSH2 0x100 EXP SWAP1 DIV PUSH20 0xFFFFFFFFFFFFFFFFFFFFFFFFFFFFFFFFFFFFFFFF AND PUSH20 0xFFFFFFFFFFFFFFFFFFFFFFFFFFFFFFFFFFFFFFFF AND CALLER PUSH20 0xFFFFFFFFFFFFFFFFFFFFFFFFFFFFFFFFFFFFFFFF AND EQ PUSH2 0x4A1 JUMPI PUSH1 0x40 MLOAD PUSH32 0x8C379A000000000000000000000000000000000000000000000000000000000 DUP2 MSTORE PUSH1 0x4 ADD PUSH2 0x498 SWAP1 PUSH2 0x683 JUMP JUMPDEST PUSH1 0x40 MLOAD DUP1 SWAP2 SUB SWAP1 REVERT JUMPDEST DUP2 PUSH1 0x1 PUSH1 0x0 DUP3 DUP3 SLOAD PUSH2 0x4B3 SWAP2 SWAP1 PUSH2 0x7CC JUMP JUMPDEST SWAP3 POP POP DUP2 SWAP1 SSTORE POP DUP2 DUP2 PUSH2 0x4C6 SWAP2 SWAP1 PUSH2 0x7CC JUMP JUMPDEST PUSH1 0x1 SLOAD EQ PUSH2 0x4D7 JUMPI PUSH2 0x4D6 PUSH2 0x72F JUMP JUMPDEST JUMPDEST PUSH32 0x4D6CE1E535DBADE1C23DEFBA91E23B8F791CE5EDC0CC320257A2B364E4E38426 DUP3 PUSH1 0x40 MLOAD PUSH2 0x506 SWAP2 SWAP1 PUSH2 0x52B JUMP JUMPDEST PUSH1 0x40 MLOAD DUP1 SWAP2 SUB SWAP1 LOG1 POP POP JUMP JUMPDEST PUSH1 0x0 DUP2 SWAP1 POP SWAP2 SWAP1 POP JUMP JUMPDEST PUSH2 0x525 DUP2 PUSH2 0x512 JUMP JUMPDEST DUP3 MSTORE POP POP JUMP JUMPDEST PUSH1 0x0 PUSH1 0x20 DUP3 ADD SWAP1 POP PUSH2 0x540 PUSH1 0x0 DUP4 ADD DUP5 PUSH2 0x51C JUMP JUMPDEST SWAP3 SWAP2 POP POP JUMP JUMPDEST PUSH1 0x0 DUP1 REVERT JUMPDEST PUSH2 0x554 DUP2 PUSH2 0x512 JUMP JUMPDEST DUP2 EQ PUSH2 0x55F JUMPI PUSH1 0x0 DUP1 REVERT JUMPDEST POP JUMP JUMPDEST PUSH1 0x0 DUP2 CALLDATALOAD SWAP1 POP PUSH2 0x571 DUP2 PUSH2 0x54B JUMP JUMPDEST SWAP3 SWAP2 POP POP JUMP JUMPDEST PUSH1 0x0 PUSH1 0x20 DUP3 DUP5 SUB SLT ISZERO PUSH2 0x58D JUMPI PUSH2 0x58C PUSH2 0x546 JUMP JUMPDEST JUMPDEST PUSH1 0x0 PUSH2 0x59B DUP5 DUP3 DUP6 ADD PUSH2 0x562 JUMP JUMPDEST SWAP2 POP POP SWAP3 SWAP2 POP POP JUMP JUMPDEST PUSH1 0x0 PUSH20 0xFFFFFFFFFFFFFFFFFFFFFFFFFFFFFFFFFFFFFFFF DUP3 AND SWAP1 POP SWAP2 SWAP1 POP JUMP JUMPDEST PUSH1 0x0 PUSH2 0x5CF DUP3 PUSH2 0x5A4 JUMP JUMPDEST SWAP1 POP SWAP2 SWAP1 POP JUMP JUMPDEST PUSH2 0x5DF DUP2 PUSH2 0x5C4 JUMP JUMPDEST DUP3 MSTORE POP POP JUMP JUMPDEST PUSH1 0x0 PUSH1 0x20 DUP3 ADD SWAP1 POP PUSH2 0x5FA PUSH1 0x0 DUP4 ADD DUP5 PUSH2 0x5D6 JUMP JUMPDEST SWAP3 SWAP2 POP POP JUMP JUMPDEST PUSH1 0x0 DUP3 DUP3 MSTORE PUSH1 0x20 DUP3 ADD SWAP1 POP SWAP3 SWAP2 POP POP JUMP JUMPDEST PUSH32 0x596F7520617265206E6F7420746865206F776E6572206F662074686973206163 PUSH1 0x0 DUP3 ADD MSTORE PUSH32 0x636F756E74000000000000000000000000000000000000000000000000000000 PUSH1 0x20 DUP3 ADD MSTORE POP JUMP JUMPDEST PUSH1 0x0 PUSH2 0x66D PUSH1 0x25 DUP4 PUSH2 0x600 JUMP JUMPDEST SWAP2 POP PUSH2 0x678 DUP3 PUSH2 0x611 JUMP JUMPDEST PUSH1 0x40 DUP3 ADD SWAP1 POP SWAP2 SWAP1 POP JUMP JUMPDEST PUSH1 0x0 PUSH1 0x20 DUP3 ADD SWAP1 POP DUP2 DUP2 SUB PUSH1 0x0 DUP4 ADD MSTORE PUSH2 0x69C DUP2 PUSH2 0x660 JUMP JUMPDEST SWAP1 POP SWAP2 SWAP1 POP JUMP JUMPDEST PUSH1 0x0 PUSH1 0x40 DUP3 ADD SWAP1 POP PUSH2 0x6B8 PUSH1 0x0 DUP4 ADD DUP6 PUSH2 0x51C JUMP JUMPDEST PUSH2 0x6C5 PUSH1 0x20 DUP4 ADD DUP5 PUSH2 0x51C JUMP JUMPDEST SWAP4 SWAP3 POP POP POP JUMP JUMPDEST PUSH32 0x4E487B7100000000000000000000000000000000000000000000000000000000 PUSH1 0x0 MSTORE PUSH1 0x11 PUSH1 0x4 MSTORE PUSH1 0x24 PUSH1 0x0 REVERT JUMPDEST PUSH1 0x0 PUSH2 0x706 DUP3 PUSH2 0x512 JUMP JUMPDEST SWAP2 POP PUSH2 0x711 DUP4 PUSH2 0x512 JUMP JUMPDEST SWAP3 POP DUP3 DUP3 SUB SWAP1 POP DUP2 DUP2 GT ISZERO PUSH2 0x729 JUMPI PUSH2 0x728 PUSH2 0x6CC JUMP JUMPDEST JUMPDEST SWAP3 SWAP2 POP POP JUMP JUMPDEST PUSH32 0x4E487B7100000000000000000000000000000000000000000000000000000000 PUSH1 0x0 MSTORE PUSH1 0x1 PUSH1 0x4 MSTORE PUSH1 0x24 PUSH1 0x0 REVERT JUMPDEST PUSH1 0x0 DUP2 SWAP1 POP SWAP2 SWAP1 POP JUMP JUMPDEST PUSH1 0x0 DUP2 SWAP1 POP SWAP2 SWAP1 POP JUMP JUMPDEST PUSH1 0x0 PUSH2 0x78D PUSH2 0x788 PUSH2 0x783 DUP5 PUSH2 0x75E JUMP JUMPDEST PUSH2 0x768 JUMP JUMPDEST PUSH2 0x512 JUMP JUMPDEST SWAP1 POP SWAP2 SWAP1 POP JUMP JUMPDEST PUSH2 0x79D DUP2 PUSH2 0x772 JUMP JUMPDEST DUP3 MSTORE POP POP JUMP JUMPDEST PUSH1 0x0 PUSH1 0x40 DUP3 ADD SWAP1 POP PUSH2 0x7B8 PUSH1 0x0 DUP4 ADD DUP6 PUSH2 0x51C JUMP JUMPDEST PUSH2 0x7C5 PUSH1 0x20 DUP4 ADD DUP5 PUSH2 0x794 JUMP JUMPDEST SWAP4 SWAP3 POP POP POP JUMP JUMPDEST PUSH1 0x0 PUSH2 0x7D7 DUP3 PUSH2 0x512 JUMP JUMPDEST SWAP2 POP PUSH2 0x7E2 DUP4 PUSH2 0x512 JUMP JUMPDEST SWAP3 POP DUP3 DUP3 ADD SWAP1 POP DUP1 DUP3 GT ISZERO PUSH2 0x7FA JUMPI PUSH2 0x7F9 PUSH2 0x6CC JUMP JUMPDEST JUMPDEST SWAP3 SWAP2 POP POP JUMP JUMPDEST PUSH1 0x0 PUSH2 0x80B DUP3 PUSH2 0x5A4 JUMP JUMPDEST SWAP1 POP SWAP2 SWAP1 POP JUMP JUMPDEST PUSH2 0x81B DUP2 PUSH2 0x800 JUMP JUMPDEST DUP3 MSTORE POP POP JUMP JUMPDEST PUSH1 0x0 PUSH1 0x20 DUP3 ADD SWAP1 POP PUSH2 0x836 PUSH1 0x0 DUP4 ADD DUP5 PUSH2 0x812 JUMP JUMPDEST SWAP3 SWAP2 POP POP JUMP INVALID LOG2 PUSH5 0x6970667358 0x22 SLT KECCAK256 0x1E 0x49 SWAP5 0x1F PUSH7 0xE52A1DE79D3EEC 0x27 SWAP13 SWAP7 0xDD SWAP15 PUSH30 0xD333A3FF8F22EE9DDAEA40E6EF0464736F6C634300081100330000000000 "},"methodIdentifiers":{"balance()":"b69ef8a8","buyDonuts()":"94699835","deposit(uint256)":"b6b55f25","donutBalance()":"3639ef24","getBalance()":"12065fe0","getDonutBalance()":"6c92c921","owner()":"8da5cb5b","withdraw(uint256)":"2e1a7d4d"}}}}}